:0200000470008A
:10000000464346420004015600000000010303007D
:1000100000000000000000000000000000000000E0
:1000200000000000000000000000000000000000D0
:1000300000000000000000000000000000000000C0
:100040001000000001040700000000000000000094
:100050000000400000000000000000000000000060
:100060000000000000000000000000000000000090
:100070000000000000000000000000000000000080
:10008000EB04180A063204260000000000000000FD
:10009000050404240000000000000000000000002F
:1000A0000000000000000000000000000000000050
:1000B0000604000000000000000000000000000036
:1000C0000000000000000000000000000000000030
:1000D00020041808000000000000000000000000DC
:1000E0000000000000000000000000000000000010
:1000F0000000000000000000000000000000000000
:10010000D8041808000000000000000000000000F3
:100110000204180804200000000000000000000095
:1001200000000000000000000000000000000000CF
:10013000600400000000000000000000000000005B
:1001400000000000000000000000000000000000AF
:10015000000000000000000000000000000000009F
:10016000000000000000000000000000000000008F
:10017000000000000000000000000000000000007F
:10018000000000000000000000000000000000006F
:10019000000000000000000000000000000000005F
:1001A000000000000000000000000000000000004F
:1001B000000000000000000000000000000000003F
:1001C000000100000010000001000000000000001D
:1001D000000001000000000000000000000000001E
:1001E000000000000000000000000000000000000F
:1001F00000000000000000000000000000000000FF
:1002000000000000000000000000000000000000EE
:1002100000000000000000000000000000000000DE
:10100000D10020410020007000000000301000706E
:1010100020100070001000700000000000000000B0
:10102000000000700000400000000000FFFFFFFF14
:10103000D2041041CC038C04400FC068FFFFFFFFB7
:10104000400FC06CFFFFFFFF400FC070FFFFFFFFAE
:10105000400FC074FFFFFFFF400FC078FFFFFFFF8E
:10106000400FC07CFFFFFFFF400FC080FFFFFFFF6E
:10107000400D803000002001400D8100101D101B2C
:10108000400FC01400010D40401F801400000000FC
:10109000401F801800000000401F801C000000005E
:1010A000401F802000000000401F8024000000003E
:1010B000401F802800000000401F802C000000001E
:1010C000401F803000000000401F803400000000FE
:1010D000401F803800000000401F803C00000000DE
:1010E000401F804000000000401F804400000000BE
:1010F000401F804800000000401F804C000000009E
:10110000401F805000000000401F8054000000007D
:10111000401F805800000000401F805C000000005D
:10112000401F806000000000401F8064000000003D
:10113000401F806800000000401F806C000000001D
:10114000401F807000000000401F807400000000FD
:10115000401F807800000000401F807C00000000DD
:10116000401F808000000000401F808400000000BD
:10117000401F808800000000401F808C000000009D
:10118000401F809000000000401F8094000000007D
:10119000401F809800000000401F809C000000005D
:1011A000401F80A000000000401F80A4000000003D
:1011B000401F80A800000000401F80AC000000001D
:1011C000401F80B000000010401F8204000110F991
:1011D000401F8208000110F9401F820C000110F925
:1011E000401F8210000110F9401F8214000110F905
:1011F000401F8218000110F9401F821C000110F9E5
:10120000401F8220000110F9401F8224000110F9C4
:10121000401F8228000110F9401F822C000110F9A4
:10122000401F8230000110F9401F8234000110F984
:10123000401F8238000110F9401F823C000110F964
:10124000401F8240000110F9401F8244000110F944
:10125000401F8248000110F9401F824C000110F924
:10126000401F8250000110F9401F8254000110F904
:10127000401F8258000110F9401F825C000110F9E4
:10128000401F8260000110F9401F8264000110F9C4
:10129000401F8268000110F9401F826C000110F9A4
:1012A000401F8270000110F9401F8274000110F984
:1012B000401F8278000110F9401F827C000110F964
:1012C000401F8280000110F9401F8284000110F944
:1012D000401F8288000110F9401F828C000110F924
:1012E000401F8290000110F9401F8294000110F904
:1012F000401F8298000110F9401F829C000110F9E4
:10130000401F82A0000110F9402F000010000004CF
:10131000402F000800000081402F000C00000081D9
:10132000402F00108000001B402F00148200001B83
:10133000402F00188400001B402F001C8600001B5B
:10134000402F002090000021402F0024A000001911
:10135000402F0028A8000017402F002CA900001BD8
:10136000402F003000000021402F0004000079A829
:10137000402F004000000F31402F0044006529221B
:10138000402F004800010920402F004C50210A083E
:10139000402F008000000021402F008400888888B2
:1013A000402F009400000002402F00980000000031
:1013B000402F009080000000402F009CA55A000F95
:1013C000CF000C1C402F003C00000001CC00140496
:1013D000402F009080000000402F009CA55A000C78
:1013E000CF000C1C402F003C00000001CC00140476
:1013F000402F009080000000402F009CA55A000C58
:10140000CF000C1C402F003C00000001CC001C044D
:10141000402F00A000000033402F0090800000000B
:10142000402F009CA55A000ACF000C1C402F003C06
:1014300000000001CC000C04402F004C50210A0990
:10144000000000000000000000000000000000009C
:10145000000000000000000000000000000000008C
:10146000000000000000000000000000000000007C
:10147000000000000000000000000000000000006C
:1020000070DC02201524007069840080E1040080E7
:10201000E10400804119008039A90080000000001F
:10202000000000000000000000000000519A008045
:10203000514E0080000000002F040080E99D0080C8
:1020400095240070992400709D240070A1240070D4
:10205000A5240070A9240070AD240070B124007084
:10206000B5240070B9240070BD240070C124007034
:10207000C5240070C9240070CD240070D1240070E4
:10208000D52400707D2400707D2400707D240070B4
:10209000F9790080597A0080B97A0080197B008034
:1020A000797B0080E17B0080F1240070717C0080EE
:1020B000F9240070FD2400700125007005250070D2
:1020C000092500700D250070112500701525007080
:1020D000192500701D2500707D2400707D2400707E
:1020E0007D2400707D2400707D240070E931008023
:1020F0007D2400707D2400707D2400707D2400709C
:102100007D2400707D2400707D2400707D2400708B
:102110007D2400707D2400707D2400707D2400707B
:102120002125007025250070292500702D250070BF
:10213000312500707D2400707D2400707D240070A6
:102140007D2400707D2400707D2400707D2400704B
:102150007D2400707D2400707D2400707D2400703B
:102160007D2400707D2400707D2400707D2400702B
:102170007D2400707D2400707D2400707D2400701B
:10218000295800805958008099580080395A008099
:10219000695A00807D2400707D2400707D240070C9
:1021A0007D2400707D240070352500703925007075
:1021B0007D2400707D2400707D2400707D240070DB
:1021C0007D2400707D2400707D2400707D240070CB
:1021D0007D2400707D2400707D2400707D240070BB
:1021E0007D2400707D2400707D2400703D250070EA
:1021F000412500707D240070452500704925007040
:1022000041A8008029A800804D250070512500704C
:102210007D2400707D2400707D2400707D2400707A
:102220007D2400707D240070B18400807D240070C6
:102230007D2400707D2400707D2400707D2400705A
:102240007D2400707D2400707D2400707D2400704A
:102250007D2400707D2400707D2400707D2400703A
:102260007D2400707D2400707D2400707D2400702A
:102270007D2400707D2400707D2400707D2400701A
:102280007D2400707D2400707D2400707D2400700A
:102290007D2400707D2400707D2400707D240070FA
:1022A00055250070592500705D2500707D24007053
:1022B000612500707D2400707D2400707D240070F5
:1022C0007D2400707D2400707D2400707D240070CA
:1022D0007D2400707D2400707D2400707D240070BA
:1022E0007D2400707D2400707D2400707D240070AA
:1022F0007D2400707D2400707D2400707D2400709A
:102300007D2400707D2400707D2400707D24007089
:102310007D2400707D2400707D2400707D24007079
:102320007D2400707D2400707D2400707D24007069
:102330007D2400707D2400707D2400707D24007059
:102340007D2400707D2400707D2400707D24007049
:102350007D2400707D2400707D2400707D24007039
:102360007D2400707D2400707D2400707D24007029
:102370007D2400707D2400707D2400707D24007019
:102380007D2400707D2400707D2400707D24007009
:102390007D2400707D2400707D2400707D240070F9
:1023A0007D2400707D2400707D2400707D240070E9
:1023B0007D2400707D2400707D2400707D240070D9
:1023C0007D2400707D2400707D2400707D240070C9
:1023D0007D2400707D2400707D2400707D240070B9
:1023E0007D2400707D2400707D2400707D240070A9
:1023F0007D2400707D2400707D240070FFFFFFFFAE
:10240000DFF80CD000F020F900480047110C0080E4
:1024100070DC02201148124901601248016841F045
:102420000401016010480168C0F200014FF007028A
:102430004FF00A034FEA02424FEA035342EA030114
:10244000016072B609480A4901600A6882F3088887
:102450000848804762B60848004700BF44C00A40A9
:10246000AFAAAAAA40C00A4038C00A4008ED00E05E
:10247000002000707126007001240070FFF7FEBF7D
:102480003848004738480047384800473848004730
:102490003848004738480047384800473848004720
:1024A0003848004738480047384800473848004710
:1024B0003848004738480047384800473848004700
:1024C00038480047384800473848004738480047F0
:1024D00038480047384800473848004738480047E0
:1024E00038480047384800473848004738480047D0
:1024F00038480047384800473848004738480047C0
:1025000038480047384800473848004738480047AF
:10251000384800473848004738480047384800479F
:10252000384800473848004738480047384800478F
:10253000384800473848004738480047384800477F
:10254000384800473848004738480047384800476F
:10255000384800473848004738480047384800475F
:102560003848004769840080E1040080519A008067
:102570002F040080E99D0080A1380080093B008085
:10258000613B0080B93B0080113C0080693C0080C9
:10259000C13C0080193D0080713D0080C93D008034
:1025A000F938008051390080A9390080013A008053
:1025B000593A0080B13A00807D240070C9790080CA
:1025C000297A0080897A0080E97A0080497B00803E
:1025D000B17B0080117C0080417C008029660080F6
:1025E0003966008051660080696600801967008046
:1025F00061670080A9670080F16700804919008049
:10260000A119008029970080D997008089980080BF
:10261000E9980080B9990080D1540080D954008095
:102620007D2400707D24007059A8008091A800804E
:10263000A153008031520080195200800152008065
:10264000011A0080E1540080064C074D06E0E06866
:1026500040F0010394E8070098471034AC42F6D3E9
:10266000FFF7D2FE382800707828007000000000C4
:1026700080B584B04EF68850CEF20000016841F477
:10268000700101604FF4806001904FF000400390B2
:1026900042F20000C7F2000002900198800800900A
:1026A000FFE70098411E0091002808D0FFE702983C
:1026B000009950F82100039A42F82100F1E70398AD
:1026C0004EF60851CEF20001086048F20800C4F24C
:1026D0000B00018821F0010101800820C4F20D00E7
:1026E000018821F00101018048F20000C4F20B00D2
:1026F00000884007002809D5FFE748F20000C4F22F
:102700000B00018821F004010180FFE70020C4F2E2
:102710000D0000884007002808D5FFE70020C4F21C
:102720000D00018821F004010180FFE74CF2000058
:10273000C4F20B000068800400280AD5FFE74CF2C1
:102740000400C4F20B004CF22051CDF628110160B8
:102750000AE04CF20400C4F20B004CF2205101607C
:102760004DF628110160FFE74CF20800C4F20B009F
:102770004FF6FF7101604CF20000C4F20B000168DB
:1027800041F0200121F0800101604EF21000CEF2F4
:1027900000000068C007002809D0FFE74EF21000D3
:1027A000CEF20000016821F001010160FFE74EF662
:1027B0001450CEF20000006800F40030B0F5003F85
:1027C00026D0FFE74EF61450CEF2000000688003DA
:1027D000002801D5FFE71AE0BFF34F8FBFF36F8FDB
:1027E0004EF65070CEF2000000210160BFF34F8F13
:1027F000BFF36F8F4EF61450CEF20000016841F423
:1028000000310160BFF34F8FBFF36F8FFFE7FFE72A
:1028100000F002F804B080BD704702E008C8121F43
:1028200008C1002AFAD170477047002001E001C1B9
:10283000121F002AFBD17047782800700004008026
:1028400060F701001A2800700020027000000020CC
:1028500000020000BA0B008040210270000000005E
:10286000340700001A280070402102700002002086
:1028700070B602002A280070EFF3108072B670471D
:1028800080F310887047424A1368012B04D04FF040
:10289000010313603F4A10603F4A11603F484FF008
:1028A000805101607047EFF3108272B638480168BA
:1028B00051B34FF0000101603648016891B1EFF368
:1028C00009811EF0100F08BF21ED108B21E9F00FD8
:1028D0004FF000041EF0100F08BF012441F8044D12
:1028E000006801602C490968096808C9B1E8F00F5F
:1028F000002B18BFB1EC108B81F309884EF0100E3D
:10290000002B18BF2EF0100E82F310884EF0040E2C
:10291000704721490860EFF3148222F0040282F329
:1029200014881C494FF00000086019494FF001005D
:1029300008601B481B49D0F8002041EA02010160F1
:1029400016484FF08051016017480068006880F316
:10295000088861B662B670471EF0040F0CBFEFF333
:102960000880EFF3098020E9F00F40F804ED40F80B
:1029700004ED1EF0040F0CBF80F3088880F3098873
:1029800000B512F005FF5DF804EB4EF0040E704741
:10299000C4B40220FCB1022008B2022004ED00E021
:1029A00020ED00E00000FFFF08ED00E02DE9F05F02
:1029B0000546002092469B468846064681464024AE
:1029C0001BE0284641464746224600F0E4F85346BD
:1029D0005A46C01A914110D311461846224600F0BB
:1029E000CBF82D1A67EB01084F4622460120002143
:1029F00000F0C2F817EB00094E41201EA4F10104BB
:102A0000DFDC484631462A464346BDE8F09F2DE9C3
:102A1000F0410024061B254671F1000605DA012469
:102A20000027D0EB070067EB0101161E73F10006CB
:102A300005DA0027D2EB0702012567EB0303FFF756
:102A4000B5FF86460E4617469C46AC4204D000258C
:102A5000D0EB050E65EB010624B10020D2EB000798
:102A600060EB030C704631463A466346BDE8F081A0
:102A7000002800DA4042704710B540EA01040346DE
:102A8000A40703D009E010C9121F10C3042AFAD208
:102A900003E011F8014B03F8014B521EF9D210BDAF
:102AA000D2B201E000F8012B491EFBD27047002290
:102AB000F6E710B513460A4604461946FFF7F0FF3D
:102AC000204610BD421E12F8013F002BFBD111F829
:102AD000013B02F8013B002BF9D1704710B50446C9
:102AE00004E00B7800F8013B03B1491C521EF8D2F8
:102AF000204610BD421C10F8011B0029FBD1801A92
:102B0000704730B504460020034600E05B1C93424A
:102B100003D2E05CCD5C401BF8D030BD034611F819
:102B2000012B00F8012B002AF9D11846704730B567
:102B300005460020034600E05B1C934205D2EC5C96
:102B4000C85C201A01D1002CF6D130BD30B50B463F
:102B5000014600202022012409E021FA02F59D42CD
:102B600005D303FA02F5491B04FA02F52844151EA1
:102B7000A2F10102F1DC30BD202A04DB203A00FA88
:102B800002F1002070479140C2F1200320FA03F3C4
:102B9000194390407047202A04DB203A21FA02F0C2
:102BA0000021704721FA02F3D040C2F12002914087
:102BB0000843194670472DE9FE4F804681EA03001D
:102BC000C00F0C46009021F0004123F00045B8EB07
:102BD0000200A94105D24046214690461C460B46BC
:102BE000024623F00040104347D0270DC7F30A00E8
:102BF000C3F30A510290401A019040286BDAC3F3E4
:102C0000130040F4801B0098924620B10023D2EBC1
:102C1000030A63EB0B0B01985946C0F14002504682
:102C2000FFF7AAFF06460D4650465946019A00F0A6
:102C300091F910EB08006141002487EA115284EAFF
:102C4000E7731A4340D0009A62B3019A012A4FEA0F
:102C5000075215DC001B61EB02014FF0004202EA53
:102C60000752CDE90042001C41F5801132462B4647
:102C700000F091F903B0BDE8F08F40462146F9E736
:102C8000001B61EB0201001C41F5801300185B4141
:102C90002018A2F5001747EB030140EAD570B619DA
:102CA0006D4111E06D084FEA360645EAC0754FEAFE
:102CB0000752001B61EB0201001C41F5801149081D
:102CC0004FEA30000019514132462B4603B0BDE8AF
:102CD000F04F00F051B90098012240000023D0EBE2
:102CE000020263EBE073009821464FEAE074B8EB10
:102CF000000061EB0401E9E783F000435BE781F04A
:102D0000004158E72DE9FE4F81EA030404F0004436
:102D100021F0004100944FF0000B23F0004350EAF3
:102D200001045ED052EA03045BD0C3F30A54C1F33A
:102D30000A552C44A4F2F3340194A0FB0254C1F3CD
:102D4000130141F48011C3F3130343F4801301FB17
:102D5000024400FB034E840A970A44EA815447EA7E
:102D60008357A4FB076802958D0A05FB07854FEA88
:102D7000932C04FB0C542705029D4FEA065847EAA2
:102D80001637B5EB08056EEB070C870E920E47EA77
:102D9000811742EA8312A7FB0201B6EB0B0164EB39
:102DA00000042B0D43EA0C335E1844EB1C50DA464A
:102DB0005146E7FB0201C5F313044FEA0B3343EA24
:102DC00014534FEA0432019C43EA0603A4F10C04B5
:102DD0000294009CCDE900B400F0DDF803B0BDE83A
:102DE000F08F00200146F9E72DE9F04D81EA030458
:102DF00004F0004B21F0004514464FF0000A23F088
:102E0000004150EA050220D054EA01021DD0C5F36A
:102E10000A570246C5F31303C1F31300C1F30A5660
:102E200040F4801543F48013A7EB0608101BD64628
:102E300008F2FD3873EB050002D308F1010801E048
:102E400092185B41B8F1000F03DA00200146BDE89B
:102E5000F08D00204FF48011064684460EE0171BCB
:102E600073EB050705D3121B63EB050306434CEA1E
:102E7000010C49084FEA300092185B4150EA010703
:102E8000EDD152EA030012D082EA040083EA050180
:102E9000084305D0101BAB4106D20122002306E0F7
:102EA00000224FF0004302E06FF0010253101AEBD2
:102EB00006004CEB085110EB0A0041EB0B01BDE89A
:102EC000F04D00F059B870B521F0004303430CD029
:102ED000C1F30A550024D5EB040564EB0403D617AF
:102EE000AD1AB34102DB0020014670BD201841EB52
:102EF000025170BDC1F30A52C1F3130140F2FF3316
:102F000041F480119A4202DA00200146704740F2F3
:102F100033439A42A2F2334202DC5242FFF73BBEF5
:102F2000FFF72ABE30B5041E71F1000404DB4FF038
:102F30000044404264EB0101141E73F1000405DB00
:102F40001C464FF00043524263EB0403994208BF12
:102F5000904230BD202A06DBCB17203A41FA02F01E
:102F600043EAE07306E041FA02F3D040C2F12002E6
:102F7000914008431946704710B5141E73F10004C0
:102F800008DA401C41F1000192185B411A4301D15B
:102F900020F0010010BD2DE9F04D92469B4611B185
:102FA000B1FA81F202E0B0FA80F220329046FFF7E7
:102FB000E3FD04460F4640EA0A0041EA0B0153468E
:102FC0005A46084313D0114653EA010019D0C8F1FC
:102FD00040025046FFF7DFFD05460E465046594673
:102FE0004246FFF7C9FD084305D0012004E0204612
:102FF0003946BDE8F08D0020054346EAE0762C43D3
:1030000037430A986305E40AA0EB08000022FD0A92
:1030100044EA47540A3002D500200146E9E7010599
:1030200010196941DDE9084500196941BDE8F04D15
:10303000A2E770B58C1810F8015B15F0070301D1F9
:1030400010F8013B2A1106D110F8012B03E010F80B
:10305000016B01F8016B5B1EF9D12B0705D400232E
:10306000521E0DD401F8013BFAE710F8013BCB1AD0
:10307000921C03E013F8015B01F8015B521EF9D5C5
:10308000A142D8D3002070BD80B582B015F018FEE3
:1030900000210190084602B080BD00000000000041
:1030A000BFF35F8F4EF62450CEF20000016821F48A
:1030B000803101604EF69450CEF20000016821F09C
:1030C000010101607047000081B00090009840F05D
:1030D00001004EF69451CEF2000108604EF62450E5
:1030E000CEF20000016841F480310160BFF34F8FE0
:1030F000BFF36F8F01B0704780B586B040F20020FB
:10310000C2F20000002101604160ADF81610642099
:10311000049119F0ADFB0498ADF81600FFE7BDF877
:103120001600CC2844DCFFE70EF04AF9BDF8160083
:10313000052833DBFFE743F6AA70C2F20200B0F9BC
:10314000001000EE101AB8EEC00A40F20021C2F2E0
:10315000000191ED001A31EE000A81ED000A43F6FC
:10316000AC72C2F20202B2F9003000EE103AB8EED0
:10317000C00A91ED011A31EE000A81ED010A0088C2
:10318000BDF8163001EB430323F8020C1088BDF89C
:10319000162001EB4201A1F88E01FFE7052019F08E
:1031A00067FBFFE7BDF816000130ADF81600B6E783
:1031B00040F20020C2F2000090ED000A9FED421A9A
:1031C00080EE010A80ED000A90ED010A80EE010A0E
:1031D00080ED010A90ED000AB0EE001A30EE410ACF
:1031E00080ED000A90ED010A30EE410A80ED010AFF
:1031F0000020ADF81600FFE7BDF81600C7284EDC2A
:10320000FFE7BDF8160040F20021C2F2000101EB19
:103210004000B0F9080000EE100AB8EEC00A91EDC7
:10322000001A30EE410AB7EEC00AB0EE002BB0EE45
:10323000421B03918DED002B1BF0CAFB039890ED10
:10324000CA3AB7EEC31A31EE000BB7EEC03B80EDC1
:10325000CA3ABDF8161000EB4101B1F9981103EE1E
:10326000101AB8EEC33A90ED014A33EE443AB7EE85
:10327000C30A9DED001B1BF0ABFB039890EDCB3A0E
:10328000B7EEC31A31EE000BB7EEC03B80EDCB3A80
:10329000FFE7BDF816000130ADF81600ACE740F2CC
:1032A0000020C2F2000090EDCA0A9FED071A80EEDE
:1032B000010A80EDCA0A90EDCB0A80EE010A80ED8A
:1032C000CB0A06B080BD00BF0000484300000000EC
:1032D00080B58AB04FF4004002F062F848F2C02096
:1032E000C4F20D00016841F480310160016821F4ED
:1032F0000031016043F20060C0F26E1002F05CF831
:10330000002001F005FE01F047FE0120099002F0C7
:103310005FF84CF20000C4F20F0001687F2262F3F4
:103320000701016046F61840C8F20000099901F053
:10333000CBFF43F61410C1F20040099901F0C4FF1D
:103340000C20C4F208000168132262F3040101603A
:10335000FFE70020C4F20800006800F00040B0F170
:10336000004F01D0FFE7F4E74DF65020C8F201000E
:1033700001F09AFD00F090FF48F20000C4F20D0049
:103380000D21C0F2700101220890079201F0E4FFC4
:1033900048F27010C4F20D00016821F40041016090
:1033A000016821F40001016048F27001C4F20D01CE
:1033B0000A6842F400520A60069000F085FF48F265
:1033C000A000C4F20D00016841F48031016006994B
:1033D0000A6822F040420A60026842F40052026029
:1033E00000F062FF0D21C0F2E0010898079A01F099
:1033F000B3FF48F2E000C4F20D000168079A62F3DF
:1034000001010160016841F400510160016821F08F
:103410000C010160016841F480110160016841F410
:103420000011016000F048FF0D21C0F22001089852
:10343000079A01F091FF48F22000C4F20D000168E4
:1034400041F4005101604EF61420C0F2004000210A
:10345000059101F061FE4FF4887000F07DFF4FF49C
:10346000847000F079FF40F2162000F075FF4FF4F1
:10347000067000F071FF46F61400C8F20000032148
:10348000049101F049FE4EF21000C4F200000799C9
:1034900001F042FE47F21820C8F20000049901F042
:1034A00013FF43F61410C1F20040059901F00CFF20
:1034B0004FF61430C8F20000059901F02DFE46F6D3
:1034C0001840C8F20000059901F0FEFE4FF48A7022
:1034D00000F042FF4FF48B7000F03EFF182000F028
:1034E0003BFF1A2000F038FF4FF4867000F034FFE5
:1034F0004EF21C00C8F20700079901F00DFE42F2DF
:103500001C60C8F20000059901F0DEFE40F2026086
:1035100000F022FF4EF62430C8F20000079901F0B7
:10352000FBFD43F21C00C8F20000059901F0CCFE3F
:1035300040F2046000F010FF4FF22400C8F20000D7
:10354000079901F0E9FD43F21C10C8F2000005994B
:1035500001F0BAFE40F20A6000F0FEFE4FF21C706D
:10356000C8F20000059901F0D7FD47F61C50C8F2DB
:103570000000049901F0A8FE40F2022000F0ECFEE9
:103580004EF63C30C8F20000079901F0C5FD46F642
:103590003C10C8F20000059901F096FE4FF48070CF
:1035A00000F0DAFE4FF4817000F0D6FE4FF4827026
:1035B00000F0D2FE4FF4837000F0CEFE4FF61820DC
:1035C000C8F20000042101F0A7FD46F21840C8F23D
:1035D00000000221039101F077FE162000F0BCFEEE
:1035E00047F62410C8F20000039901F095FD46F655
:1035F0001860C8F20000039901F066FE40F2125014
:1036000000F0AAFE4EF22860C8F20000049901F012
:1036100083FD4EF22800C8F20700079901F07CFDF7
:1036200046F61C20C8F20000059901F04DFE40F25C
:10363000145000F091FE4EF22C60C8F20000049984
:1036400001F06AFD4EF22C00C8F20700079901F064
:1036500063FD46F61C40C8F20000059901F034FEF7
:1036600040F2165000F078FE4FF22860C8F20000D9
:10367000049901F051FD4FF22800C8F207000799A4
:1036800001F04AFD46F61C60C8F20000059901F001
:103690001BFE40F2062000F05FFE4FF4027000F0C7
:1036A0005BFE40F20A2000F057FE4FF23830C8F2BD
:1036B0000700059901F030FD43F23820C8F2000000
:1036C000059901F001FE0E2000F046FE1220029046
:1036D00000F042FE40F2067000F03EFE102000F0C6
:1036E0003BFE142000F038FE4FF4E16000F034FEA1
:1036F0004EF22020C8F20700079901F00DFD46F6B2
:103700002000C8F20000039901F0DEFD4FF4A36031
:1037100000F022FE1C2000F01FFE0C2000F01CFE1A
:103720004FF48C7000F018FE40F2023000F014FEEE
:1037300040F2063000F010FE40F21A5000F00CFE8D
:1037400040F20E6000F008FE4EF22400C8F20700BE
:10375000059901F0E1FC42F22460C8F200000599ED
:1037600001F0B2FD40F20A3000F0F6FD4EF63840AE
:10377000C8F20000079901F0CFFC4FF21870C8F2B0
:103780000000049901F0C8FC4EF63870C8F2000041
:10379000052101F099FD40F20E5000F0DDFD4FF6DD
:1037A0003010C8F20000079901F0B6FC4FF230600B
:1037B000C8F200000721019101F0AEFC47F2304051
:1037C000C8F20000049901F07FFD40F2025000F0C1
:1037D000C3FD4EF63040C8F20000079901F09CFC92
:1037E0004EF63010C8F20000019901F095FC46F247
:1037F0003070C8F20000049901F066FD4FF440708B
:1038000000F0AAFD4EF62810C8F20000079901F05A
:1038100083FC4FF62810C8F20000079901F07CFCE9
:1038200047F22030C8F20000049901F04DFD42F249
:103830000C00C8F20000059901F046FD48F2601046
:10384000C4F20D00016821F01F0101604CF260001C
:10385000C4F20F00016821F0700101600168079A4D
:1038600062F303010160016821F4600101600168F5
:10387000029B63F314410160016821F480710160CF
:10388000016821F080010160016821F08071016010
:1038900040F24800C2F2000044F20061C2F2C331BB
:1038A00001600AB080BD000080B586B04EF61450AD
:1038B000CEF2000000688003002817D5FFE7BFF3B1
:1038C0004F8FBFF36F8F4EF61450CEF20000016899
:1038D00021F4003101604EF65070CEF2000000215C
:1038E0000160BFF34F8FBFF36F8FFFE74EF61450A9
:1038F000CEF200000068C00300283DD5FFE74EF679
:103900008450CEF2000000210160BFF34F8F4EF6CD
:103910001450CEF20000016821F480310160BFF341
:103920004F8F4EF68050CEF200000068059005984B
:10393000C0F34E300490FFE70598C0F3C900039030
:10394000FFE704980399890760F34D114EF67470F0
:10395000CEF2000001600398411E03910028F0D1CF
:10396000FFE70498411E04910028E5D1FFE7BFF36B
:103970004F8FBFF36F8FFFE7FFF792FB4EF69C5020
:10398000CEF200001021CCF2000101604EF6A051F1
:10399000CEF200013922C0F210320A601122C8F2C0
:1039A000000202603B22C0F210320A601223C7F20A
:1039B000000303602B23C0F203630B601323036037
:1039C0000A60142202601F22C0F203320A6015222C
:1039D000C2F2000202602522C0F203320A601623FE
:1039E000C2F2200303600A601722C2F228020260BA
:1039F0000922C0F203320A601822C8F200020260F3
:103A00003122C0F203320A601922C8F2E0120260C9
:103A10002920C0F2083008600420FFF755FB4EF65D
:103A20001450CEF200000068C003002801D5FFE763
:103A30003CE04EF68450CEF2000000210160BFF35E
:103A40004F8F4EF68050CEF2000000680290029830
:103A5000C0F34E300190FFE70298C0F3C900009018
:103A6000FFE701980099890760F34D114EF66070E9
:103A7000CEF2000001600098411E00910028F0D1B4
:103A8000FFE70198411E01910028E5D1FFE7BFF350
:103A90004F8F4EF61450CEF20000016841F4803191
:103AA0000160BFF34F8FBFF36F8FFFE74EF61450E7
:103AB000CEF2000000688003002801D5FFE71AE07D
:103AC000BFF34F8FBFF36F8F4EF65070CEF20000F2
:103AD00000210160BFF34F8FBFF36F8F4EF614507C
:103AE000CEF20000016841F400310160BFF34F8F56
:103AF000BFF36F8FFFE706B080BD0000000000003D
:103B000080B584B042F22460C8F2000000F094FD59
:103B100000281BD1FFE70D20C0F2100000F0A8FE26
:103B20004AF6AB21CAF6AA21A0FB010189084EF290
:103B30002402C8F2070202901046019100F09CFC9A
:103B400001300199B1FBF0F003900FE000F0A4FD0B
:103B50004EF22401C8F207010090084600F08CFCE8
:103B600001300099B1FBF0F00390FFE7039804B037
:103B700080BD00000000000080B5FFF7A9FB80BDFC
:103B800080B582B00190FFE740F25450C2F20000CD
:103B900000684FF0FF3113F087FC002840F00781E8
:103BA000FFE74BF66C00C2F202000078C007002865
:103BB0005FD0FFE74CF6F030C2F2010090ED000A52
:103BC000B2EE041A30EE010AB7EEC02A43F6E06105
:103BD000C2F2020191ED000AB7EEC03A9FED744BBC
:103BE00003EE042BB1EE422BB7EEC20B4CF6E432DF
:103BF000C2F2010282ED000A90ED000A31EE400AA5
:103C0000B7EEC02A91ED000AB7EEC03A03EE442B9E
:103C1000B7EEC20B4CF6EC32C2F2010282ED000AA2
:103C200090ED000A30EE410AB7EEC02A91ED000A8D
:103C3000B7EEC03A03EE442BB7EEC20B4CF6E032BF
:103C4000C2F2010282ED000A90ED000A30EE010A94
:103C5000B7EEC02A91ED000AB7EEC03A03EE442B4E
:103C6000B7EEC20B4CF6E830C2F2010080ED000A5C
:103C70009CE04CF63450C2F20100006827284EDC6C
:103C8000FFE743F6E060C2F2020090ED000AB7EEF3
:103C9000C01A9FED472BB8EE083BB0EE434B01EE48
:103CA000424BB7EEC40B4CF6E431C2F2010181ED98
:103CB000000A90ED000AB7EEC01AB0EE084BB0EE65
:103CC000445B01EE425BB7EEC50B4CF6EC31C2F241
:103CD000010181ED000A90ED000AB7EEC01A01EE75
:103CE000423BB7EEC30B4CF6E031C2F2010181ED6D
:103CF000000A90ED000AB7EEC01A01EE424BB7EE93
:103D0000C40B4CF6E830C2F2010080ED000A4CF61C
:103D10003450C2F201000168013101603EE043F617
:103D2000E060C2F2020090ED000AB7EEC01A9FED0B
:103D3000202B21EE421BB7EEC10B4CF6E431C2F250
:103D4000010181ED000A90ED000AB7EEC01A21EEE4
:103D5000421BB7EEC10B4CF6EC31C2F2010181ED12
:103D6000000A90ED000AB7EEC01A21EE421BB7EE32
:103D7000C10B4CF6E031C2F2010181ED000A90ED79
:103D8000000AB7EEC01A21EE421BB7EEC10B4CF68B
:103D9000E830C2F2010080ED000AFFE740F2147043
:103DA000C2F2000000218161C161FFE7FFE7EBE69D
:103DB000343333333333E33FFFE7FEE700000000E3
:103DC00080B582B04BF2B850C2F2020040680028C1
:103DD00001D0FFE70BE04EF2B750C8F201004EF2FF
:103DE0000861C8F2010141F2AD1209F065F94BF228
:103DF000B850C2F20200416840F24410C2F2000022
:103E000000680022C4F21D0201901046019A9047FA
:103E1000BFF34F8F02B080BD80B582B04BF2B85077
:103E2000C2F202008068002801D0FFE70BE04EF2EA
:103E3000D250C8F201004EF20861C8F2010141F20D
:103E4000B81209F039F94BF2B850C2F20200816899
:103E500040F24410C2F20000006844F20002C4F2D2
:103E60001D0201901046019A9047BFF34F8F02B098
:103E700080BD00000000000080B582B04BF2B85059
:103E8000C2F20200C068002801D0FFE70BE04EF24A
:103E9000ED50C8F201004EF20861C8F2010141F292
:103EA000C31209F009F94BF2B850C2F20200C1681E
:103EB00040F24410C2F20000006848F20002C4F26E
:103EC0001D0201901046019A9047BFF34F8F02B038
:103ED00080BD00000000000080B586B00A460346A1
:103EE000ADF816008DF81510BDF91600000A049003
:103EF000BDF8160000F01F0003900498072801D8B1
:103F0000FFE70BE04EF2B540C8F201004EF2162179
:103F1000C8F2010140F2DF5209F0CEF804984CF2E9
:103F20006801C4F20F0101EB80000290029803992E
:103F300003228A409DF8153003FA01F101911146E0
:103F4000019A08F039FF06B080BD000000000000B3
:103F500080B586B00A460346ADF816008DF81510F8
:103F6000BDF91600000A0490BDF8160000F01F000D
:103F700003900498072801D8FFE70BE04EF2B54004
:103F8000C8F201004EF21621C8F2010140F2DF52E0
:103F900009F092F804984CF26801C4F20F0101EBA9
:103FA000800002900298039903228A409DF8153000
:103FB00003FA01F101911146019A08F019FF06B0C8
:103FC00080BD00000000000080B586B00A460346B0
:103FD000ADF816008DF81510BDF91600000A049012
:103FE000BDF8160000F01F0003900498072801D8C0
:103FF000FFE70BE04EF2B540C8F201004EF2162189
:10400000C8F2010140F2DF5209F056F804984CF270
:104010006801C4F20F0101EB80000290029803993D
:1040200003228A409DF8153003FA01F101911146EF
:10403000019A08F0F9FE06B080BD00000000000003
:1040400080B586B00A460346ADF816008DF8151007
:10405000BDF91600000A0490BDF8160000F01F001C
:1040600003900498072801D8FFE70BE04EF2B54013
:10407000C8F201004EF21621C8F2010140F2DF52EF
:1040800009F01AF804984CF26801C4F20F0101EB30
:10409000800002900298039903228A409DF815300F
:1040A00003FA01F101911146019A08F0D9FE06B018
:1040B00080BD00000000000080B586B00A460346BF
:1040C000ADF816008DF81510BDF91600000A049021
:1040D000BDF8160000F01F0003900498072801D8CF
:1040E000FFE70BE04EF2B540C8F201004EF2162198
:1040F000C8F2010140F2DF5208F0DEFF04984CF2F2
:104100006801C4F20F0101EB80000290029803994C
:1041100003228A409DF8153003FA01F101911146FE
:10412000019A08F0B9FE06B080BD00000000000052
:1041300080B586B00A460346ADF816008DF8151016
:10414000BDF91600000A0490BDF8160000F01F002B
:1041500003900498072801D8FFE70BE04EF2B54022
:10416000C8F201004EF21621C8F2010140F2DF52FE
:1041700008F0A2FF04984CF26801C4F20F0101EBB1
:10418000800002900298039903228A409DF815301E
:1041900003FA01F101911146019A08F099FE06B067
:1041A00080BD00000000000080B586B00A460346CE
:1041B000ADF816008DF81510BDF91600000A049030
:1041C000BDF8160000F01F0003900498072801D8DE
:1041D000FFE70BE04EF2B540C8F201004EF21621A7
:1041E000C8F2010140F2DF5208F066FF04984CF279
:1041F0006801C4F20F0101EB80000290029803995C
:1042000003228A409DF8153003FA01F1019111460D
:10421000019A08F079FE06B080BD000000000000A1
:1042200080B586B00A460346ADF816008DF8151025
:10423000BDF91600000A0490BDF8160000F01F003A
:1042400003900498072801D8FFE70BE04EF2B54031
:10425000C8F201004EF21621C8F2010140F2DF520D
:1042600008F02AFF04984CF26801C4F20F0101EB38
:10427000800002900298039903228A409DF815302D
:1042800003FA01F101911146019A08F059FE06B0B6
:1042900080BD00000000000048F27000C4F20D0074
:1042A0004FF480510160704748F2E000C4F20D0005
:1042B0004FF480510160704748F22000C4F20D00B5
:1042C000002101607047000048F2A000C4F20D0018
:1042D0004FF480510160704780B582B00146ADF85F
:1042E0000600BDF90600002200911146FFF76CFEA2
:1042F00002B080BD0000000080B582B00146ADF87C
:104300000600BDF90600002200911146FFF7D4FE19
:1043100002B080BD0000000080B582B00146ADF85B
:104320000600BDF90600002200911146FFF700FFCC
:1043300002B080BD0000000080B582B00146ADF83B
:104340000600BDF90600002200911146FFF72CFF80
:1043500002B080BD0000000080B582B00146ADF81B
:104360000600BDF90600002200911146FFF758FF34
:1043700002B080BD0000000080B582B00146ADF8FB
:104380000600BDF90600032200911146FFF7A4FDC7
:1043900002B080BD0000000080B582B00146ADF8DB
:1043A0000600BDF90600032200911146FFF7D0FD7B
:1043B00002B080BD0000000080B582B00146ADF8BB
:1043C0000600BDF90600032200911146FFF7FCFD2F
:1043D00002B080BD0000000080B582B00146ADF89B
:1043E0000600BDF90600032200911146FFF728FEE2
:1043F00002B080BD0000000080B582B00146ADF87B
:104400000600BDF90600032200911146FFF754FE95
:1044100002B080BD0000000080B582B00146ADF85A
:104420000600BDF90600032200911146FFF780FE49
:1044300002B080BD0000000080B582B00146ADF83A
:104440000600BDF90600032200911146FFF7ACFEFD
:1044500002B080BD0000000080B500F05DF94CF2B4
:104460001401C4F20F01096801F4E051012202EBCA
:104470009121B0FBF1F080BD81B00090009840F632
:10448000C071C0F2400161F31F2000680099C1F3C0
:104490004C32C1F304218A401040C84001B070473B
:1044A00080B584B001468DF80F009DF80F000246DC
:1044B0001B28019200F2A7800199DFE801F00E0E9F
:1044C00012161A1E22262B32373C415F666D727718
:1044D0007C81888F969D464A4F54FFF7BDFF02901E
:1044E00094E000F005FC029090E000F095F8029056
:1044F0008CE000F0EDF8029088E000F0B1F8029056
:1045000084E000F0F1FB029080E00D2000F0B0F9B3
:1045100002907BE00D20C0F2100000F0A9F902909B
:1045200074E0002000F06CFC02906FE0012000F0CD
:1045300067FC02906AE0022000F062FC029065E0F5
:10454000032000F05DFC029060E000F0A5FB02900B
:104550005CE000F0A1FB8008029057E000F09CFBBB
:10456000C008029052E000F097FB4AF6AB21CAF671
:10457000AA21A0FB01018908029147E00D20C0F2A9
:10458000200000F075F9029040E00D20C0F23000EC
:1045900000F06EF9029039E0002000F0DDFB02909F
:1045A00034E0012000F0D8FB02902FE0022000F060
:1045B000D3FB02902AE0032000F0CEFB029025E01E
:1045C0000D20C0F2E00000F053F902901EE014202C
:1045D000C0F2E00000F04CF9029017E01520C0F2A4
:1045E000E00000F045F9029010E00D20C0F27000EC
:1045F00000F03EF9029009E00D20C0F2A00000F0AA
:1046000037F9029002E000200290FFE7029804B020
:1046100080BD00000000000080B5FFF71DFF4CF2D8
:104620001401C4F20F01096801F44071012202EB88
:104630001121B0FBF1F080BD81B00090009840F6F0
:10464000C071C0F2400161F31F2000680099C1F3FE
:104650004C32C1F304218A401040C84001B0704779
:1046600081B048F27020C4F20D000068C006002836
:1046700006D5FFE743F20060C0F26E10009006E03E
:1046800043F68070C2F2020000680090FFE70098D5
:1046900001B070470000000081B048F27020C4F201
:1046A0000D000068C006002806D5FFE743F2006051
:1046B000C0F26E10009006E043F68070C2F2020075
:1046C00000680090FFE7009801B07047000000000C
:1046D00080B582B04CF21C00C4F20F0000684006A6
:1046E000002804D5FFE7FFF7BBFF019003E0FFF7C9
:1046F00093FF0190FFE74CF21C00C4F20F0000682A
:1047000000F03F0001300199B1FBF0F001900198F9
:1047100002B080BD0000000080B584B04CF21400EF
:10472000C4F20F0000688001002840D5FFE74CF27A
:104730001800C4F20F00006800F440500146002841
:1047400002910FD0FFE70298B0F5805F11D0FFE72C
:104750000298B0F5005F10D0FFE70298B0F5405F17
:1047600012D012E00D20C0F2100000F081F803908A
:104770000EE0FFF775FF03900AE00D20C0F2300055
:1047800000F076F8039003E0FFE700200390FFE7D6
:104790004CF21400C4F20F00006800F060500121D8
:1047A00001EBD0600399B1FBF0F003903EE04CF2D6
:1047B0001800C4F20F00006800F4402001460028F1
:1047C00001910FD0FFE70198B0F5802F11D0FFE7DE
:1047D0000198B0F5002F11D0FFE70198B0F5402FF8
:1047E00011D01FE00D20C0F2300000F041F803901E
:1047F0001BE0022000F0B0FA039016E0002000F069
:10480000ABFA039011E00D2000F032F84CF21001E9
:10481000C4F20F01096801F007010131B0FBF1F0AA
:10482000039002E000200390FFE7FFE7039804B045
:1048300080BD00000000000080B584B003900291AC
:104840000398BDF80A106FF31F31405880B2002161
:10485000B1EB903F04D1FFE7FFF702FF019002E0C8
:1048600000200190FFE7019804B080BD0000000027
:1048700080B58CB00A900A9948F20000C4F20D008D
:1048800000F0A6FB002803D1FFE700200B9000E218
:104890000A9948F20000C4F20D000590FFF7CCFF22
:1048A00009900A99059800F083FB002803D0FFE7E0
:1048B00009980B90EDE10A980D2804903DD0FFE790
:1048C0000D20C0F21000049981427ED0FFE70D2038
:1048D000C0F220000499814200F0C681FFE70D205C
:1048E000C0F230000499814233D0FFE70D20C0F2BE
:1048F00070000499814277D0FFE70D20C0F2A0003C
:104900000499814200F0FF80FFE70D20C0F2E00033
:104910000499814200F08081FFE71420C0F2E0009A
:104920000499814200F08981FFE71520C0F2E00080
:104930000499814200F09281A5E1099848F20001B2
:10494000C4F20D01096801F07F0148434008099055
:104950009CE19DED090AB8EE401B48F25000C4F2FC
:104960000D0090ED000AB8EE402B21EE021B8DEDFC
:10497000061B48F26000C4F20D0090ED000AB8EE8C
:10498000401B9DED062B82EE011B8DED061B48F2B0
:104990003000C4F20D000068C007002805D0FFE712
:1049A000099816214843099005E0099800EB80001A
:1049B00080000990FFE79DED060BBCEEC01B11EED9
:1049C000100A09990844099060E1099848F2100119
:1049D000C4F20D01096889071422002948BF162274
:1049E00002FB00F0099051E148F27000C4F20D00A2
:1049F000016801F07F0108919DED090AB8EE401BA6
:104A000048F28001C4F20D0191ED000AB8EE402B8E
:104A100021EE021B8DED061B48F29001C4F20D0140
:104A200091ED000AB8EE401B9DED062B82EE011BB6
:104A30008DED061B0999089A9DED061BBCEEC10B76
:104A400010EE103A01FB02310991006800F4C01029
:104A50000146002803910AD0FFE70398B0F5002F24
:104A600009D0FFE70398B0F5801F08D008E0099847
:104A70008008099010E00998400809900CE00BE0CC
:104A80004EF28D40C8F201004EF25741C8F20101CA
:104A900040F2174208F010FB48F27010C4F20D000B
:104AA000006848F20001C0F2800108400146002879
:104AB00002911AD0FFE70298B0F5004F11D0FFE73E
:104AC0000298B0F5000F10D0FFE748F20000C0F2E6
:104AD00080000299814209D1FFE709988008099076
:104AE00010E00998400809900CE00BE04EF28D4070
:104AF000C8F201004EF25741C8F2010140F22B42C8
:104B000008F0DAFAC2E048F2A000C4F20D00016831
:104B100001F07F0108919DED090AB8EE401B48F2B3
:104B2000B001C4F20D0191ED000AB8EE402B21EE68
:104B3000021B8DED061B48F2C001C4F20D0191ED80
:104B4000000AB8EE401B9DED062B82EE011B8DED99
:104B5000061B0999089A9DED061BBCEEC10B10EED1
:104B6000103A01FB02310991006800F4C0100146BF
:104B7000002801910AD0FFE70198B0F5002F09D075
:104B8000FFE70198B0F5801F08D008E00998800879
:104B9000099010E00998400809900CE00BE04EF2F3
:104BA0008D40C8F201004EF25741C8F201014FF4A6
:104BB0008B6208F081FA48F27010C4F20D000068B0
:104BC00000F040400146B0F1004F009116D0FFE7E1
:104BD0000098B0F1404F09D0FFE7009800280DD0B1
:104BE000FFE70098B0F1804F04D008E009988008F2
:104BF000099010E00998400809900CE00BE04EF293
:104C00008D40C8F201004EF25741C8F2010140F256
:104C10006C4208F051FA39E048F2E000C4F20D00AD
:104C2000006800F00300089008984DF64011C8F2A3
:104C3000010151F82000099028E048F2E000C4F298
:104C40000D000068C0F38100089008984DF64011EF
:104C5000C8F2010151F82000099017E047F6400022
:104C6000C0F27D10099011E0099848F22001C4F2C9
:104C70000D01096889071422002948BF162202FB8A
:104C800000F0099002E000200990FFE709980B90DE
:104C9000FFE70B980CB080BD80B582B04CF20C00E1
:104CA000C4F20F00006800F00100014600280091E6
:104CB00004D0FFE70098012807D00CE00D20C0F2D7
:104CC0001000FFF7D5FD019008E043F20060C0F24C
:104CD0006E10019002E000200190FFE7019802B001
:104CE00080BD0000000000004FF40040704700004D
:104CF00080B582B04CF21400C4F20F000068400688
:104D0000002814D5FFE74CF21400C4F20F0000682D
:104D10000006002805D5FFE7012000F071F801909A
:104D200004E0022000F018F80190FFE703E0FFF72D
:104D3000F3FC0190FFE74CF21400C4F20F0000688E
:104D400000F4E020012101EB10400199B1FBF0F0EB
:104D50000190019802B080BD80B584B001468DF805
:104D60000F000D20C0F230000191FFF781FD02908D
:104D70009DF80F0001460328009134D80099DFE820
:104D800001F0020E1A2648F20010C4F20D0000686D
:104D900000F03F000299B1FBF0F0029026E048F2EB
:104DA0000010C4F20D000068C0F305200299B1FBA9
:104DB000F0F002901AE048F20010C4F20D00006812
:104DC000C0F305400299B1FBF0F002900EE048F20A
:104DD0000010C4F20D000068C0F305600299B1FB39
:104DE000F0F0029002E000200290FFE7029800EB52
:104DF000C00040000290029804B080BD0000000096
:104E000080B584B001468DF80F000D20C0F210006F
:104E10000191FFF72DFD02909DF80F000146032838
:104E2000009134D80099DFE801F0020E1A2648F20A
:104E3000F000C4F20D00006800F03F000299B1FBE1
:104E4000F0F0029026E048F2F000C4F20D00006895
:104E5000C0F305200299B1FBF0F002901AE048F28D
:104E6000F000C4F20D000068C0F305400299B1FBE8
:104E7000F0F002900EE048F2F000C4F20D0000687D
:104E8000C0F305600299B1FBF0F0029002E000204F
:104E90000290FFE7029800EBC000400002900298E9
:104EA00004B080BD0000000081B0009048F2000016
:104EB000C4F20D00016821F4E031009A12799203E6
:104EC00092B2114401F580310160016843F27F0222
:104ED0009143009A126802F07F02114401F50051DB
:104EE0000160FFE748F20000C4F20D000068C00F47
:104EF000002801D1FFE7F5E748F20000C4F20D00F9
:104F0000016821F48031016001B0704700000000A9
:104F100082B001468DF807009DF80700C007002801
:104F200001D1FFE70AE04EF27E40C8F201004EF2E6
:104F30005741C8F20101C12208F0BEF848F25810EA
:104F4000C4F20D004FF080410160FFE748F270208D
:104F5000C4F20D000068C003002801D4FFE7F5E7A4
:104F600048F25410C4F20D004FF480310160FFE7A5
:104F700048F25010C4F20D0000680004002801D46B
:104F8000FFE7F5E748F25810C4F20D004FF4803106
:104F9000016002B07047000048F27020C4F20D00BA
:104FA000016841F00101016070470000000000004D
:104FB00082B0019000910198BDF802106FF31F318B
:104FC0004058C0F3004002B07047000000000000ED
:104FD00082B0019000910198BDF802106FF31F316B
:104FE0004058009901F01F01C84000F0010002B0D4
:104FF000704700000000000080B584B0039002916B
:105000000398800E0190039840F6C071C0F24001F1
:1050100061F31F200068039AC2F34C33C2F3042CDF
:1050200003FA0CF39843DDF808E00EFA0CFC03EAEF
:105030000C03184361F31F2210600198202801D847
:10504000FFE70BE04EF2CE10C8F201004EF216213F
:10505000C8F2010140F2BD5208F02EF80198202854
:105060000ED0FFE7FFE74CF24800C4F20F000068E3
:105070000199C840C007002801D0FFE7F3E7FFE728
:1050800004B080BD0000000080B584B003900291A0
:105090000398800E0190039840F6C071C0F2400161
:1050A00061F31F200068039AC2F34C33C2F3042C4F
:1050B00003FA0CF39843DDF808E00EFA0CFC03EA5F
:1050C0000C03184361F31F2210600198202801D8B7
:1050D000FFE70BE04EF2CE10C8F201004EF21621AF
:1050E000C8F2010140F2BD5207F0E6FF0198202806
:1050F0000ED0FFE7FFE74CF24800C4F20F00006853
:105100000199C840C007002801D0FFE7F3E7FFE797
:1051100004B080BD0000000080B584B0039002910F
:105120000398800E0190039840F6C071C0F24001D0
:1051300061F31F200068039AC2F34C33C2F3042CBE
:1051400003FA0CF39843DDF808E00EFA0CFC03EACE
:105150000C03184361F31F2210600198202801D826
:10516000FFE70BE04EF2CE10C8F201004EF216211E
:10517000C8F2010140F2BD5207F09EFF01982028BD
:105180000ED0FFE7FFE74CF24800C4F20F000068C2
:105190000199C840C007002801D0FFE7F3E7FFE707
:1051A00004B080BD0000000080B584B0039002917F
:1051B0000398800E0190039840F6C071C0F2400140
:1051C00061F31F200068039AC2F34C33C2F3042C2E
:1051D00003FA0CF39843DDF808E00EFA0CFC03EA3E
:1051E0000C03184361F31F2210600198202801D896
:1051F000FFE70BE04EF2CE10C8F201004EF216218E
:10520000C8F201014FF4B16207F056FF019820285F
:105210000ED0FFE7FFE74CF24800C4F20F00006831
:105220000199C840C007002801D0FFE7F3E7FFE776
:1052300004B080BD0000000080B584B003900291EE
:105240000398800E0190039840F6C071C0F24001AF
:1052500061F31F200068039AC2F34C33C2F3042C9D
:1052600003FA0CF39843DDF808E00EFA0CFC03EAAD
:105270000C03184361F31F2210600198202801D805
:10528000FFE70BE04EF2CE10C8F201004EF21621FD
:10529000C8F201014FF4B16207F00EFF0198202817
:1052A0000ED0FFE7FFE74CF24800C4F20F000068A1
:1052B0000199C840C007002801D0FFE7F3E7FFE7E6
:1052C00004B080BD0000000080B584B0039002915E
:1052D0000398800E0190039840F6C071C0F240011F
:1052E00061F31F200068039AC2F34C33C2F3042C0D
:1052F00003FA0CF39843DDF808E00EFA0CFC03EA1D
:105300000C03184361F31F2210600198202801D874
:10531000FFE70BE04EF2CE10C8F201004EF216216C
:10532000C8F201014FF4B16207F0C6FE01982028CF
:105330000ED0FFE7FFE74CF24800C4F20F00006810
:105340000199C840C007002801D0FFE7F3E7FFE755
:1053500004B080BD0000000083B0134602900191AC
:105360008DF803209DF80300C00700280AD0FFE74E
:105370000298BDF806106FF31F3108444FF48031D6
:10538000416009E00298BDF806106FF31F31084430
:105390004FF480318160FFE703B0704700000000E8
:1053A00081B00090009843F67C71C2F2020108605F
:1053B00001B070470000000081B00090009843F6F3
:1053C0008071C2F20201086001B070470000000065
:1053D00081B001468DF803009DF80300002807D135
:1053E000FFE748F27420C4F20D001021016006E0CE
:1053F00048F27820C4F20D0010210160FFE701B0EF
:10540000704700000000000084B00A4603908DF849
:105410000B1000200090039800680190019820F480
:105420008070039908609DF80B00C007002805D024
:10543000FFE7009840F020000090FFE79DF80B0088
:105440008007002805D5FFE7009840F04000009055
:10545000FFE7019820F480700099084303990860E1
:10546000FFE7039800680099084201D0FFE7F8E7DA
:1054700001980399086004B0704700000000000024
:1054800080B582B040F24010C2F2000000684BF2DA
:105490007851C2F2020109684CF20002C4F22B02F8
:1054A00001901046019A9047BFF34F8F02B080BD24
:1054B00083B013468C4602908DF807108DF80620B5
:1054C000002000909DF80700C007002805D0FFE7E6
:1054D000009840F480500090FFE79DF80700800797
:1054E000002805D5FFE7009840F400600090FFE732
:1054F0009DF80600C007002806D0FFE70098029933
:105500008A681043886006E0009802998A6822EA57
:1055100000008860FFE703B0704700000000000053
:1055200082B001900091BDF8020001990A6842EA38
:10553000004008609DF8000001998A681043886067
:105540009DF80100000201998A6C42EA901088647B
:1055500002B070470000000080B584B0039003984B
:10556000002801D0FFE70BE04EF2F640C8F2010040
:105570004EF2C241C8F201014FF4E47207F09CFD03
:1055800003980021102202910192FDF792FA0399EB
:105590004FF4A0720A800399F0224A80039940F6E2
:1055A00002024A60039902220A7203994FF42072A0
:1055B0004A810399019A8A810399029B8B7303990B
:1055C0004FF0010C81F80FC004B080BD0000000056
:1055D00082B0019000200090FFE70098002811D1D0
:1055E000FFE700984DF6BC61C8F2010151F82000B8
:1055F0000199884201D1FFE704E0FFE700980130FC
:105600000090EAE70098002801D1FFE70AE04EF297
:105610009340C8F201004EF2C241C8F20101B52226
:1056200007F04AFD009802B070470000000000003B
:1056300083B00A4602908DF807109DF807000028F5
:1056400004D0FFE70298C06A009003E00298806AE5
:105650000090FFE7009803B07047000000000000D2
:1056600080B5FFF70DFFBFF34F8F80BD0000000036
:1056700080B588B0069005910598002801D0FFE715
:105680000BE04EF2F640C8F201004EF2C241C8F201
:10569000010140F2191207F00FFD05980188007A08
:1056A000484303909DF80C004007002806D1FFE70F
:1056B000059840894007002803D0FFE704200790A1
:1056C00099E00698FFF784FF019001984DF6C061BC
:1056D000C8F2010131F91000FEF74EFE069800F005
:1056E000BBF8059881894068084340F480700490B5
:1056F0000598C07BC007002805D0FFE7049840F05C
:1057000080400490FFE70498069908600598807B24
:10571000002809D1FFE70598007A022804D1FFE7A5
:1057200002208DF80B0003E001208DF80B00FFE74D
:105730000598007A042806D1FFE70698816C41F0AD
:1057400008018164FFE70598807B012806D1FFE707
:105750000698816841F008018160FFE7059801889B
:105760009DF80B205143408840EA01400699486368
:10577000059840890399401AC0080699086306985D
:10578000816841F0010181609DF80C00400600280D
:105790000CD1FFE706984FF04041416006988068C1
:1057A000022161F30610069988601DE09DF80C0047
:1057B000800600280CD1FFE706984FF000414160B9
:1057C00006988068012161F30610069988600AE056
:1057D00006984FF0804141600698806820F0700084
:1057E00006998860FFE7FFE70698012100F008F8B6
:1057F00000200790FFE7079808B080BD0000000078
:1058000083B00A4602908DF80710002000909DF8A2
:105810000700C007002805D0FFE7009840F480404B
:105820000090FFE79DF807008007002805D5FFE7F7
:10583000009840F400500090FFE7009802998A68B1
:1058400010438860FFE7029880680099084201D001
:10585000FFE7F8E703B0704780B584B00390039882
:1058600000F05EF80398002181600398816841F49C
:1058700000418160FFE7039880680004002801D59B
:10588000FFE7F8E7039803210191FFF7BDFD0398B7
:105890000199FFF7B5FF0398806902900298039978
:1058A0008861039840F60001C4F20001016003988A
:1058B000002141600398816003984FF45042826454
:1058C000039801630398416304B080BD00000000A9
:1058D00083B00B4602908DF8071000929DF80700E8
:1058E000002804D0FFE700980299C86203E00098FE
:1058F00002998862FFE703B07047000000000000D3
:1059000080B582B00190019801210091009AFFF7C3
:10591000CFFD0198816C41F00041816402B080BDEF
:1059200080B582B001900198816C21F000418164C2
:10593000019801210022FFF7BBFD02B080BD0000ED
:1059400080B588B0079006910592049306980028C8
:1059500001D0FFE70BE04EF2E740C8F201004EF243
:10596000C241C8F2010140F2812207F0A5FB06986E
:10597000002128220291FDF79CF80599069A1162F0
:105980000499069A5162079901900846FFF720FE94
:105990000390069803994BF27852C2F2020242F841
:1059A000210040F24010C2F2000043F24161C8F20F
:1059B0000001016003984DF6C261C8F2010131F99E
:1059C000100001F0A9FF02990090084608B080BDC0
:1059D00082B001900198806900900198017F01399F
:1059E00001770098006801998861009802B07047BB
:1059F00081B000900098007F01B070470000000067
:105A000080B586B00590049103920498407D8DF88E
:105A100003000498007D8DF802009DF803009DF8B6
:105A20000210884204D1FFE740F65530019019E09A
:105A3000059800680290029820F4C010059908604B
:105A40000498417D50F82100039908600498407D36
:105A500000F0D2F804994875029805990860002072
:105A60000190FFE7019806B080BD00000000000033
:105A700081B00A4603468DF803008DF802109DF8A8
:105A800002009DF80310884208DBFFE79DF8020042
:105A90009DF80310401A8DF8010008E09DF80200FF
:105AA0009DF80310401A05308DF80100FFE79DF8BE
:105AB000010001B07047000080B58AB009900891DC
:105AC000099880690590059809998861059800F4FE
:105AD000C010B0F5C01F01D1FFE78AE09DF81600A5
:105AE00010F0180F00F08380FFE79DF81600C00645
:105AF000002804D5FFE701208DF81D0003E00020F9
:105B00008DF81D00FFE70898407F02283ED1FFE78F
:105B10000898007D8DF81F000898407D8DF81E00C4
:105B20009DF81E009DF81F10FFF7A2FF03282BD839
:105B3000FFE709989DF81D10FFF77AFD069006987B
:105B400008999DF81F2041F822009DF81F0000F0E1
:105B500053F8089908750898417F013941770898EA
:105B6000006A00280FD0FFE708980999026A436A83
:105B700040F6573C04900846049903926246DDF8CB
:105B80000CC0E047FFE700E0FFE7FFE70898407F31
:105B900001282BD8FFE70898FFF72AFF002815D027
:105BA000FFE709989DF81D10089A02901046019190
:105BB000FFF70EFF0299009008460199009AFFF73F
:105BC00087FE0898417F013141770EE009989DF8E2
:105BD0001D1081F00101FFF72BFD069009989DF83B
:105BE0001D10069AFFF774FEFFE7FFE700E0FFE7EE
:105BF000FFE70AB080BD000081B001468DF80300C8
:105C00009DF8030001308DF802009DF80200052880
:105C100004D3FFE700208DF80200FFE79DF80200A3
:105C200001B070470000000083B00290019101981C
:105C30000090029880690099086000980299886134
:105C40000298017F0131017703B070470000000026
:105C500080B586B0049003910398002801D0FFE737
:105C60000BE04EF2E740C8F201004EF2C241C8F22A
:105C700001014FF42A7207F01FFA0398FFF7B8FEEC
:105C800002900298012804D8FFE740F654300590AE
:105C900027E00498806C40F0300020F44020049904
:105CA00088640398FFF794FE049988620398FFF7CD
:105CB0008FFE0499C862039802214177049801215C
:105CC0000191FFF79DFD03980199817704984FF4A6
:105CD000C011FFF725FC0498FFF712FE0020059085
:105CE000FFE7059806B080BD80B584B003900291AF
:105CF0000192039800680090009820F4C010039966
:105D0000086002980199FFF78FFF009803990860D7
:105D1000002004B080BD000080B548F20000C4F24D
:105D20000E00002101F074FB4007002808D5FFE7B2
:105D30004BF2E040C2F20200006801F0A5FBFFE771
:105D400048F20000C4F20E00102101F061FB400790
:105D5000002808D5FFE74BF2E040C2F20200006CD9
:105D600001F092FBFFE7BFF34F8F80BD0000000002
:105D700080B548F20000C4F20E000A2101F048FB91
:105D80004007002808D5FFE74BF2E040C2F20200CE
:105D9000806A01F079FBFFE748F20000C4F20E00D0
:105DA0001A2101F035FB4007002808D5FFE74BF228
:105DB000E040C2F20200806E01F066FBFFE7BFF335
:105DC0004F8F80BD0000000080B548F20000C4F293
:105DD0000E000B2101F01CFB4007002808D5FFE74F
:105DE0004BF2E040C2F20200C06A01F04DFBFFE757
:105DF00048F20000C4F20E001B2101F009FB40072D
:105E0000002808D5FFE74BF2E040C2F20200C06E66
:105E100001F03AFBFFE7BFF34F8F80BD00000000A9
:105E200080B548F20000C4F20E000C2101F0F0FA37
:105E30004007002808D5FFE74BF2E040C2F202001D
:105E4000006B01F021FBFFE748F20000C4F20E00F6
:105E50001C2101F0DDFA4007002808D5FFE74BF2CE
:105E6000E040C2F20200006F01F00EFBFFE7BFF35B
:105E70004F8F80BD0000000080B548F20000C4F2E2
:105E80000E000D2101F0C4FA4007002808D5FFE7F5
:105E90004BF2E040C2F20200406B01F0F5FAFFE77E
:105EA00048F20000C4F20E001D2101F0B1FA4007D3
:105EB000002808D5FFE74BF2E040C2F20200406F35
:105EC00001F0E2FAFFE7BFF34F8F80BD0000000052
:105ED00080B548F20000C4F20E000E2101F098FADD
:105EE0004007002808D5FFE74BF2E040C2F202006D
:105EF000806B01F0C9FAFFE748F20000C4F20E001F
:105F00001E2101F085FA4007002808D5FFE74BF273
:105F1000E040C2F20200806F01F0B6FAFFE7BFF383
:105F20004F8F80BD0000000080B548F20000C4F231
:105F30000E000F2101F06CFA4007002808D5FFE79A
:105F40004BF2E040C2F20200C06B01F09DFAFFE7A5
:105F500048F20000C4F20E001F2101F059FA400778
:105F6000002808D5FFE74BF2E040C2F20200C06F04
:105F700001F08AFAFFE7BFF34F8F80BD00000000F9
:105F800080B548F20000C4F20E00012101F040FA91
:105F90004007002808D5FFE74BF2E040C2F20200BC
:105FA000406801F071FAFFE748F20000C4F20E0009
:105FB000112101F02DFA4007002808D5FFE74BF228
:105FC000E040C2F20200406C01F05EFAFFE7BFF36E
:105FD0004F8F80BD0000000080B548F20000C4F281
:105FE0000E00022101F014FA4007002808D5FFE74F
:105FF0004BF2E040C2F20200806801F045FAFFE790
:1060000048F20000C4F20E00122101F001FA40072C
:10601000002808D5FFE74BF2E040C2F20200806C96
:1060200001F032FAFFE7BFF34F8F80BD00000000A0
:1060300080B548F20000C4F20E00032101F0E8F937
:106040004007002808D5FFE74BF2E040C2F202000B
:10605000C06801F019FAFFE748F20000C4F20E0030
:10606000132101F0D5F94007002808D5FFE74BF2CE
:10607000E040C2F20200C06C01F006FAFFE7BFF395
:106080004F8F80BD0000000080B548F20000C4F2D0
:106090000E00042101F0BCF94007002808D5FFE7F5
:1060A0004BF2E040C2F20200006901F0EDF9FFE7B7
:1060B00048F20000C4F20E00142101F0A9F94007D3
:1060C000002808D5FFE74BF2E040C2F20200006D65
:1060D00001F0DAF9FFE7BFF34F8F80BD0000000049
:1060E00080B548F20000C4F20E00052101F090F9DD
:1060F0004007002808D5FFE74BF2E040C2F202005B
:10610000406901F0C1F9FFE748F20000C4F20E0057
:10611000152101F07DF94007002808D5FFE74BF273
:10612000E040C2F20200406D01F0AEF9FFE7BFF3BC
:106130004F8F80BD0000000080B548F20000C4F21F
:106140000E00062101F064F94007002808D5FFE79A
:106150004BF2E040C2F20200806901F095F9FFE7DE
:1061600048F20000C4F20E00162101F051F9400778
:10617000002808D5FFE74BF2E040C2F20200806D34
:1061800001F082F9FFE7BFF34F8F80BD00000000F0
:1061900080B548F20000C4F20E00072101F038F982
:1061A0004007002808D5FFE74BF2E040C2F20200AA
:1061B000C06901F069F9FFE748F20000C4F20E007F
:1061C000172101F025F94007002808D5FFE74BF219
:1061D000E040C2F20200C06D01F056F9FFE7BFF3E4
:1061E0004F8F80BD0000000080B548F20000C4F26F
:1061F0000E00082101F00CF94007002808D5FFE740
:106200004BF2E040C2F20200006A01F03DF9FFE704
:1062100048F20000C4F20E00182101F0F9F840071E
:10622000002808D5FFE74BF2E040C2F20200006E02
:1062300001F02AF9FFE7BFF34F8F80BD0000000097
:1062400080B548F20000C4F20E00092101F0E0F828
:106250004007002808D5FFE74BF2E040C2F20200F9
:10626000406A01F011F9FFE748F20000C4F20E00A5
:10627000192101F0CDF84007002808D5FFE74BF2BF
:10628000E040C2F20200406E01F0FEF8FFE7BFF30B
:106290004F8F80BD0000000080B59CB01A9019910E
:1062A00018921793002005901A99049104994A1C9A
:1062B00004920870199890ED000B8DED0A0B9DED7E
:1062C0000A0BB5EE400BF1EE10FA09D1FFE7049886
:1062D0003021017005980130059005981B9004E16C
:1062E0009DED0A0B06A818F011FB8DED080B0020A0
:1062F0001390FFE71398179988420FD2FFE79DED9F
:10630000180AB8EEC01B9DED082B22EE011B8DED87
:10631000081BFFE7139801301390EBE79DED0A0B84
:10632000B5EE400BF1EE10FA28DBFFE79DED080B10
:10633000B6EE001B30EE010B8DED100B9DED100B3A
:106340009DED172AB8EE421BB2EE043B8DED020B19
:10635000B0EE430B18F03CFB9DED021BB4EE401B6E
:10636000F1EE10FA09DBFFE79DED060BB7EE001B1F
:1063700030EE010B8DED060BFFE729E09DED080BDC
:10638000BEEE001B30EE010B8DED100B9DED100BE2
:106390009DED172AB8EE421BB2EE043B8DED000BCB
:1063A000B0EE430B18F014FBB1EE400B9DED001B5B
:1063B000B4EE401BF1EE10FA09DCFFE79DED060B91
:1063C000BFEE001B30EE010B8DED060BFFE7FFE784
:1063D00000201390FFE71398179988423DD2FFE7FA
:1063E0009DED100B9DED181AB8EEC12B80EE020B3F
:1063F0008DED0C0B9DED100B9DED0C2BB6EEC22B15
:106400009DED181AB8EEC13B02EE430B8DED0E0B5D
:106410009DED0E0BBDEEC01B8DED141A1498B0F15E
:10642000FF3F05DCFFE71498C0F13000149003E053
:10643000149830301490FFE79DED0C0B8DED100B90
:10644000149804994A1C049208700598013005902C
:10645000FFE7139801301390BDE70498411C0491A5
:106460002E2101700598013005909DED060BBDEEC3
:10647000C01B8DED161A1698002809D1FFE7049865
:10648000411C04913021017005980130059029E0EC
:10649000FFE71698002824D0FFE71698189990FB7C
:1064A000F1F0159016981599189A01FB12001490A6
:1064B0001498B0F1FF3F05DCFFE71498C0F13000FD
:1064C000149003E0149830301490FFE7159816905C
:1064D000149804994A1C049208700598013005909C
:1064E000D7E7FFE705981B90FFE71B981CB080BD1E
:1064F000B0B596B0DDF868C0149013911292119364
:106500008DF843C0002001901499009100994A1C15
:10651000009208700F900E900D900C900B900A90C6
:1065200009900890079006900590049003900290BF
:106530001298002864D0FFE71398016840680F9014
:106540000E910E980F990843002809D1FFE7009893
:106550003021017001980130019001981590BBE045
:10656000FFE70E980F990843002848D0FFE70E98E0
:106570000F99119AD317FCF74AFA0D910C900E98C7
:106580000F990C9A0D9BDDF844C04FEAEC7EA2FBFC
:106590000C4502FB0E5203FB0C22001B61EB0201B7
:1065A0000A900B910B98B0F1FF3F12DCFFE70A98BD
:1065B0000B990591049004980599C043C943039130
:1065C000029002980399313041F100010A900B9139
:1065D00007E00A980B99303041F100010A900B91C5
:1065E000FFE70C980D990F910E909DF828000099E7
:1065F0004A1C00920870019801300190B1E768E0F0
:10660000139801684068099008910898099908430F
:10661000002809D1FFE7009830210170019801306E
:1066200001900198159057E0FFE7089809990843F1
:1066300000284DD0FFE708980999119AD317FCF765
:10664000B5F90791069008980999069A079BDDF815
:1066500044C04FEAEC7EA2FB0C4502FB0E5203FB4A
:106660000C22001B61EB020104900591049805992E
:10667000D0F109004FF0000272EB010108D3FFE7EF
:1066800004980599303041F100010490059111E022
:10669000049805999DF84320D2076123002A18BF6A
:1066A0004123C01841F100010A3861F10001049052
:1066B0000591FFE706980799099108909DF8100049
:1066C00000994A1C00920870019801300190ACE7D3
:1066D000FFE701981590FFE7159816B0B0BD0000D0
:1066E00083B080B583B00793069205910290002095
:1066F000009005A801900298019900F0C1FD00905A
:10670000009803B0BDE8804003B07047000000006F
:1067100080B5BEB03D923C903B91002030902F90D0
:106720002D908DF8A200239022903B983A90FFE79D
:106730003A9890F90000002802D1FFE700F053BD1D
:106740003A9800788DF8E7009DF9E70025280ED0EB
:10675000FFE73C989DF9E7101C9008461C99884774
:106760002D9901312D913A9901313A91E0E70120BB
:106770008DF8A300002027908DF8BB00FFE79DF85F
:10678000BB00C007002837D1FFE73A98411C3A9177
:1067900090F901002038014610281B9124D81B993C
:1067A000DFE801F01322221D222222222222220EC1
:1067B000220922221800279840F0010027901AE0B1
:1067C000279840F00200279015E0279840F0040039
:1067D000279010E0279840F0080027900BE02798BA
:1067E00040F01000279006E03A9801383A900120D6
:1067F0008DF8BB00FFE7C2E700202C908DF8BB00AE
:10680000FFE79DF8BB00C00700282ED1FFE73A98AC
:10681000411C3A9140788DF8E7009DF9E700302857
:106820000FDBFFE79DF9E70039280ADCFFE72C982A
:1068300000EB80009DF9E71001EB400030382C9010
:1068400012E09DF9E7002A2806D1FFE73D98011DD7
:106850003D9100682C9006E03A9801383A9001206A
:106860008DF8BB00FFE7FFE7CBE706202B90002069
:106870008DF887003A98411C3A9190F901002E2832
:1068800040D1FFE700202B908DF8BB00FFE79DF87B
:10689000BB00C007002834D1FFE73A98411C3A9169
:1068A00040788DF8E7009DF9E700302812DBFFE71C
:1068B0009DF9E70039280DDCFFE72B9800EB8000FD
:1068C0009DF9E71001EB400030382B9001208DF846
:1068D000870015E09DF9E7002A2809D1FFE73D98D8
:1068E000011D3D9100682B9001208DF8870006E086
:1068F0003A9801383A9001208DF8BB00FFE7FFE796
:10690000C5E703E03A9801383A90FFE73A98411C0E
:106910003A9190F90100014668281A9104D0FFE7E6
:106920001A986C2816D02BE03A98411C3A9190F9AD
:106930000100682808D0FFE7279840F04000279022
:106940003A9801383A9004E0279840F020002790C8
:10695000FFE719E03A98411C3A9190F901006C2840
:1069600008D0FFE7279840F0800027903A98013838
:106970003A9004E0279840F480702790FFE703E006
:106980003A9801383A90FFE73A98411C3A9140789A
:106990008DF8E7009DF9E70064282ED0FFE79DF908
:1069A000E700692829D0FFE79DF9E700662824D091
:1069B000FFE79DF9E70046281FD0FFE79DF9E700B4
:1069C00078281AD0FFE79DF9E700582815D0FFE78F
:1069D0009DF9E7006F2810D0FFE79DF9E7006228D6
:1069E0000BD0FFE79DF9E700702806D0FFE79DF97F
:1069F000E700752840F04B83FFE79DF9E700642826
:106A000006D0FFE79DF9E700692840F0CC80FFE75A
:106A10009DF89D00C00700280CD0FFE73D98073087
:106A200020F0070000F108013D91016840682590C1
:106A3000249116E09DF89C000006002808D5FFE789
:106A40003D98011D3D910068C1172490259107E0F4
:106A50003D98011D3D910068C11724902591FFE7E5
:106A6000FFE79DF8A30000F00100694608600DF102
:106A7000C60024A901220A231990FFF739FD2F909F
:106A80002F981999084430902598B0F1FF3F07DC02
:106A9000FFE72D208DF89B002F9801302F901FE0ED
:106AA0009DF89C008007002807D5FFE72B208DF874
:106AB0009B002F9801302F9011E09DF89C0040071B
:106AC000002807D5FFE720208DF89B002F98013084
:106AD0002F9003E000208DF89B00FFE7FFE7FFE722
:106AE00000208DF89A009DF89C00000700281FD513
:106AF000FFE79DF99B0000280BD0FFE73C989DF92C
:106B00009B1018900846189988472D9901312D91AE
:106B1000FFE701208DF89A002F992C9A3C986B463C
:106B2000186030202DAB00F063FB2C982F9023E0F1
:106B30009DF89C00C00700281DD1FFE72F992C9AD3
:106B40003C986B46186020202DAB00F051FB9DF95E
:106B50009B0000280BD0FFE73C989DF99B101790F5
:106B60000846179988472D9901312D91FFE701209B
:106B70008DF89A00FFE7FFE79DF89A00C00700280C
:106B800010D1FFE79DF99B0000280BD0FFE73C9850
:106B90009DF99B1016900846169988472D9901314A
:106BA0002D91FFE7FFE79DF9E700662806D0FFE794
:106BB0009DF9E700462840F0AB80FFE73D9807309D
:106BC00020F0070000F108013D9190ED000B8DEDE4
:106BD0001E0B2B9B0DF1C6001EA90A221590FFF774
:106BE0005BFB2F902F981599084430909DED1E0B5C
:106BF000B5EE400BF1EE10FA07DAFFE72D208DF825
:106C00009B002F9801302F901FE09DF89C0080077B
:106C1000002807D5FFE72B208DF89B002F98013027
:106C20002F9011E09DF89C004007002807D5FFE752
:106C300020208DF89B002F9801302F9003E000203A
:106C40008DF89B00FFE7FFE7FFE700208DF89A0033
:106C50009DF89C00000700281FD5FFE79DF99B00C9
:106C600000280BD0FFE73C989DF99B101490084634
:106C7000149988472D9901312D91FFE701208DF856
:106C80009A002F992C9A3C986B46186030202DABB7
:106C900000F0AEFA2C982F9023E09DF89C00C007DE
:106CA00000281DD1FFE72F992C9A3C986B4618605D
:106CB00020202DAB00F09CFA9DF99B0000280BD002
:106CC000FFE73C989DF99B1013900846139988475D
:106CD0002D9901312D91FFE701208DF89A00FFE7F2
:106CE000FFE79DF89A00C007002810D1FFE79DF943
:106CF0009B0000280BD0FFE73C989DF99B10129059
:106D00000846129988472D9901312D91FFE7FFE739
:106D10009DF9E700582806D0FFE79DF9E70078289D
:106D200040F0DE80FFE79DF9E700782804D1FFE717
:106D300000208DF8A300FFE79DF89D00C007002804
:106D40000CD0FFE73D98073020F0070000F1080164
:106D50003D91016840682390229116E09DF89C00C7
:106D60000006002808D5FFE73D98011D3D91006809
:106D700000212391229007E03D98011D3D9100687C
:106D8000002123912290FFE7FFE79DF8A30000F088
:106D90000100694608600DF1C60022A900221023F7
:106DA00011901092FFF7A4FB2F902F98119908448F
:106DB000309010988DF89A009DF89C201207002AB8
:106DC0002CD5FFE79DF89C00C00600281AD5FFE7E8
:106DD0003C9830210F9008460F9988473C999DF8C0
:106DE000A320D2077823002A18BF58230E901846F4
:106DF00088472D9901F102012D914FF001018DF885
:106E00009A10FFE72F992C9A3C986B461860302017
:106E10002DAB00F0EDF92C982F903AE09DF89C00F6
:106E2000C006002834D4FFE79DF89C00C006002867
:106E300004D5FFE72F9802302F90FFE72F992C9A67
:106E40003C986B46186020202DAB00F0D1F99DF8DE
:106E50009C00C00600281AD5FFE73C9830210D9011
:106E600008460D9988473C999DF8A320D2077823BE
:106E7000002A18BF58230C90184688472D9901F115
:106E800002012D914FF001018DF89A10FFE7FFE705
:106E9000FFE79DF89C00C006002820D5FFE79DF87D
:106EA0009A00C00700281AD1FFE73C9830210B90C8
:106EB00008460B9988473C999DF8A320D207782370
:106EC000002A18BF58230A90184688472D9901F1C7
:106ED00002012D912F9901F102012F91FFE7FFE7A8
:106EE0009DF9E7006F2810D0FFE79DF9E7006228C1
:106EF0000BD0FFE79DF9E700702806D0FFE79DF96A
:106F0000E700752840F09880FFE79DF9E7007028BA
:106F10000BD1FFE73D98011D3D9100681D9022A80F
:106F20001DA90422FBF7A8FD29E09DF89D00C007DC
:106F300000280CD0FFE73D98073020F0070000F153
:106F400008013D91016840682390229116E09DF868
:106F50009C000006002808D5FFE73D98011D3D91E3
:106F6000006800212391229007E03D98011D3D918A
:106F70000068002123912290FFE7FFE7FFE79DF9DA
:106F8000E70062380146132809911CD80999DFE807
:106F900001F00E1A1A1A1A1A1A1A1A1A1A1A1A0AB0
:106FA000121A1A1A1A1608208DF8A2000CE00220F4
:106FB0008DF8A20008E010208DF8A20004E00A205D
:106FC0008DF8A20000E0FFE79DF8A2309DF8A30035
:106FD00000F00100694608600DF1C60022A90022F8
:106FE0000890FFF785FA2F902F9808990844309061
:106FF0009DF89C00000700280CD5FFE72F992C9ADC
:107000003C986B46186030202DAB00F0F1F82C98BE
:107010002F9010E09DF89C00C00700280AD1FFE7E0
:107020002F992C9A3C986B46186020202DAB00F0CD
:10703000DFF8FFE7FFE7FFE73098002816D0FFE70B
:10704000FFE7309890F9000000280ED0FFE73C9849
:1070500030994A1E309291F900100790084607991E
:1070600088472D9901312D91EBE7FFE79DF89C00B2
:10707000C00700280AD0FFE72F992C9A3C986B464E
:10708000186020202DAB00F0B3F8FFE7A6E09DF9D3
:10709000E70063280FD1FFE73D98011D3D9100688F
:1070A00029903C98299906900846069988472D9979
:1070B00001312D9191E09DF9E700732840F0818026
:1070C000FFE73D98011D3D9100682A902A9800280D
:1070D00076D0FFE79DF88700C007002803D0FFE7C0
:1070E0002B982F9004E02A98FBF704FD2F90FFE7E0
:1070F0009DF89C00C00700280AD1FFE72F992C9A21
:107100003C986B46186020202DAB00F071F8FFE72B
:107110009DF88700C00700282BD0FFE7FFE72A98DB
:1071200090F9000000210028059107D0FFE72F9873
:1071300000210028C8BF01210591FFE70598C0077D
:10714000002811D0FFE73C982A994A1C2A9291F90D
:10715000001004900846049988472D9901312D911B
:107160002F9901392F91DAE72B982F99401A2F90F8
:1071700015E0FFE72A9890F9000000280ED0FFE7FD
:107180003C982A994A1C2A9291F9001003900846CB
:10719000039988472D9901312D91EBE7FFE79DF881
:1071A0009C00C00700280AD0FFE72F992C9A3C9832
:1071B0006B46186020202DAB00F01AF8FFE7FFE7C0
:1071C0000AE03C989DF9E71002900846029988472A
:1071D0002D9901312D91FFE7FFE7FFE73A98013044
:1071E0003A90FFF7A5BA2D983EB080BD0000000090
:1071F00080B586B0DDF820C086468DF81700049172
:107200000392029304980190FFE701980399884242
:1072100010DAFFE708989DF91710009008460099CA
:10722000884702990A6801320A60FFE70198013035
:107230000190EAE706B080BD80B584B002904BF2C1
:107240007C50C2F20200007C002804D1FFE74FF01E
:10725000FF30039010E04BF27C50C2F202008168D4
:1072600002AA0123019111461A46DDF804C00093D9
:10727000E04700990391FFE7039804B080BD000048
:1072800080B584B002910190002000904BF27C50B8
:10729000C2F20200007C002804D1FFE74FF0FF306B
:1072A00003900BE00199029A44F6C150C8F2000025
:1072B000FFF72EFA009000980390FFE7039804B0C0
:1072C00080BD000000000000FFE7FEE700000000B6
:1072D00083B0EFF31080019001980090EFF31080DD
:1072E00072B60290009803B07047000000000000E2
:1072F00080B582B001900020ADF80200FFE7BDF933
:1073000002001E2800F38180FFE7BDF9020000EBB8
:1073100040004BF20471C2F2020101EB800090EDDB
:10732000000AB5EE400AF1EE10FA41D0FFE70198ED
:1073300090ED0C0ABDF9020000EB40004BF2047125
:10734000C2F2020101EB800090ED011A30EE410A19
:1073500020EE000A43F6D060C2F2020080ED000A7F
:10736000019A92ED0D0ABDF9022002EB420201EBF7
:10737000820191ED021A30EE410A20EE000A43F636
:10738000D461C2F2020181ED000A90ED000A91ED94
:10739000001A30EE010AB7EEC00A17F07BFFB7EE15
:1073A000C01B43F6CC60C2F2020080ED001A19E067
:1073B000BDF9020000EB40004BF20471C2F2020181
:1073C00001EB800090ED000AB5EE400AF1EE10FAF4
:1073D00007D1FFE743F6CC60C2F202000021016052
:1073E000FFE7FFE743F6CC60C2F202000068BDF998
:1073F000021043F65462C2F2020242F82100BDF8C4
:1074000002000130ADF8020079E702B080BD000053
:1074100084B00390029102981F2801D8FFE70BE087
:107420004EF20550C8F201004EF24851C8F2010177
:1074300040F2013205F040FE0020019003980299CD
